:100000000C942A000C9447000C9447000C94470071
:100010000C9447000C9447000C9447000C94470044
:100020000C9447000C9447000C9447000C94470034
:100030000C9447000C9447000C9447000C94470024
:100040000C9447000C9447000C9447000C94470014
:100050000C94470011241FBECFE5D4E0DEBFCDBF16
:1000600010E0A0E6B0E0ECE8F8E002C005900D92E8
:10007000A638B107D9F720E0A6E8B0E001C01D928C
:10008000AC38B207E1F70E94BF000C9444040C9412
:100090000000B89AC0988FE39CE90197F1F700C07F
:1000A0000000C09A0895B898B099FECFB09BFECFDB
:1000B000B099FECF089588E090E0B09BFECF20E598
:1000C0002A95F1F7B09B07C020918B00220F216089
:1000D00020938B0005C020918B00220F20938B0072
:1000E000B099FECF019749F780918B00089585BBA9
:1000F00096989598979A82E08A95F1F700C097981C
:100100008FE697E10197F1F700C00000089585BBE5
:10011000969A9598979A82E08A95F1F700C09798F9
:100120008FE99FE00197F1F700C0000008958FEF7D
:1001300084BB81BB8FE39CE90197F1F700C000000D
:1001400088E30E9477008CE00E94770086E00E949E
:10015000770081E00E94770080E80E947700089590
:10016000CF93DF93EC018881882331F021960E94A0
:10017000870089918111FBCFDF91CF910895CF93B3
:10018000DF93CDB7DEB72A970FB6F894DEBF0FBE68
:10019000CDBF0E9497002FEF80E792E02150804072
:1001A0009040E1F700C000000F2EF3E7AF2EF0E023
:1001B000BF2EF02DCE0101966C010F2EF0E8EF2E30
:1001C000F0E0FF2EF02D8E010A5F1F4F0E944900C4
:1001D0000E9453000E945B0080938A000E945B0093
:1001E000809389000E945B00809388000E945B00DE
:1001F000809387000E945B008093860090918A0024
:100200002091890030E0290F311D90918800290F3D
:10021000311D90918700290F311D90E02817390773
:1002200041F080E80E94770080E690E00E94B000F4
:100230003AC080E80E94770088E690E00E94B00013
:10024000809188001F928F93BF92AF92DF92CF92DE
:100250000E945A018AE80E947700C6010E94B000FD
:1002600080EC0E94770088E790E00E94B0008091C7
:100270008A001F928F93FF92EF921F930F930E9419
:100280005A0187EC0E947700C8010E94B00089ECF7
:100290000E94770084E890E00E94B0000FB6F894C6
:1002A000DEBF0FBECDBF8FE19EE40197F1F700C026
:1002B00000008CCFAEE0B0E0E0E6F1E00C941B046F
:1002C0000D891E8986E08C831A8309838FEF9FE74F
:1002D0009E838D83AE01475E5F4F6F89788DCE011F
:1002E00001960E947C01EF81F885E00FF11F1082DA
:1002F0002E96E4E00C943704ABE0B0E0E2E8F1E0E5
:100300000C940D046C017B018A01FC01178216829A
:10031000838181FFCCC1CE0101963C01F60193811E
:10032000F70193FD859193FF81917F01882309F463
:10033000BAC1853239F493FD859193FF81917F0194
:10034000853229F4B60190E00E947303E7CF912C27
:10035000212C312CFFE1F315D8F08B3279F038F4F1
:10036000803279F08332A1F4232D20611DC08D32BB
:1003700061F0803369F4232D216016C0832D8260E3
:10038000382EE32DE4603E2E2AC0F32DF8601DC008
:1003900037FC2DC020ED280F2A3040F08E32B9F402
:1003A00036FC81C1232D2064322E19C036FE06C0D2
:1003B0008AE0989E200D1124922E11C0EAE02E9E14
:1003C000200D1124222EF32DF0623F2E08C08C3612
:1003D00021F4832D8068382E02C0883641F4F7015D
:1003E00093FD859193FF81917F018111B3CF982F68
:1003F0009F7D9554933028F40C5F1F4F9FE39983A2
:100400000DC0833631F0833771F0833509F059C060
:1004100021C0F801808189830E5F1F4F8824839457
:10042000912C530113C02801F2E04F0E511CF8012A
:10043000A080B18036FE03C0692D70E002C06FEF6E
:100440007FEFC5010E9468034C018201F32DFF7705
:100450003F2E16C0280122E0420E511CF801A08058
:10046000B18036FE03C0692D70E002C06FEF7FEFF0
:10047000C5010E945D034C01F32DF0683F2E8201FF
:1004800033FC1BC0822D90E088169906B0F4B601AB
:1004900080E290E00E9473032A94F4CFF50137FCC8
:1004A000859137FE81915F01B60190E00E94730350
:1004B00021102A9421E0821A91088114910471F785
:1004C000E8C0843611F0893641F5F80137FE07C0DF
:1004D00060817181828193810C5F1F4F08C06081B0
:1004E0007181072E000C880B990B0E5F1F4FF32DA7
:1004F000FF763F2E97FF09C0909580957095619586
:100500007F4F8F4F9F4FF0683F2E2AE030E0A301CE
:100510000E94AF03882E861845C0853731F4232DFD
:100520002F7EB22E2AE030E025C0932D997FB92E80
:100530008F36C1F018F4883579F0B5C0803719F0DE
:10054000883721F0B0C0E92FE061BE2EB4FE0DC0A7
:10055000FB2DF460BF2E09C034FE0AC0292F26608F
:10056000B22E06C028E030E005C020E130E002C035
:1005700020E132E0F801B7FE07C06081718182811D
:1005800093810C5F1F4F06C06081718180E090E015
:100590000E5F1F4FA3010E94AF03882E8618FB2D0C
:1005A000FF773F2E36FE0DC0232D2E7FA22E8914FD
:1005B00058F434FE0BC032FC09C0832D8E7EA82E69
:1005C00005C0B82CA32C03C0B82C01C0B92CA4FEC4
:1005D0000FC0FE01E80DF11D8081803321F49A2DBA
:1005E000997EA92E09C0A2FE06C0B394B39404C09C
:1005F0008A2D867809F0B394A3FC11C0A0FE06C032
:10060000B21488F4280C922C9B180EC0B21460F41B
:10061000B60180E290E00E947303B394F7CFB21466
:1006200018F42B1802C0982C212CA4FE10C0B6017F
:1006300080E390E00E947303A2FE17C0A1FC03C0F8
:1006400088E790E002C088E590E0B6010CC08A2DF2
:10065000867859F0A1FE02C08BE201C080E2A7FCBF
:100660008DE2B60190E00E947303891438F4B6015C
:1006700080E390E00E9473039A94F7CF8A94F30189
:10068000E80DF11D8081B60190E00E947303811096
:10069000F5CF222009F442CEB60180E290E00E941C
:1006A00073032A94F6CFF6018681978102C08FEFFB
:1006B0009FEF2B96E2E10C942904FC010590615018
:1006C00070400110D8F7809590958E0F9F1F089568
:1006D000FC016150704001900110D8F78095909511
:1006E0008E0F9F1F08950F931F93CF93DF93FB01EE
:1006F000238121FD03C08FEF9FEF2CC022FF16C086
:1007000046815781248135814217530744F4A081E3
:10071000B1819D012F5F3F4F318320838C932681D0
:1007200037812F5F3F4F3783268314C08B01EC0145
:10073000FB010084F185E02D0995892BE1F6D801B4
:1007400016968D919C911797019617969C938E9370
:100750001697CE01DF91CF911F910F910895FA0165
:10076000AA27283051F1203181F1E8946F936E7FF0
:100770006E5F7F4F8F4F9F4FAF4FB1E03ED0B4E0E1
:100780003CD0670F781F891F9A1FA11D680F791F22
:100790008A1F911DA11D6A0F711D811D911DA11D33
:1007A00020D009F468943F912AE0269F1124301943
:1007B000305D3193DEF6CF010895462F4770405DDE
:1007C0004193B3E00FD0C9F7F6CF462F4F70405D8D
:1007D0004A3318F0495D31FD4052419302D0A9F7E8
:1007E000EACFB4E0A6959795879577956795BA95E2
:1007F000C9F700976105710508959B01AC010A2EA8
:1008000006945795479537952795BA95C9F7620F7E
:10081000731F841F951FA01D08952F923F924F9222
:100820005F926F927F928F929F92AF92BF92CF9280
:10083000DF92EF92FF920F931F93CF93DF93CDB789
:10084000DEB7CA1BDB0B0FB6F894DEBF0FBECDBF01
:1008500009942A88398848885F846E847D848C84D2
:100860009B84AA84B984C884DF80EE80FD800C81DB
:100870001B81AA81B981CE0FD11D0FB6F894DEBFBE
:0C0880000FBECDBFED010895F894FFCF2E
:10088C004552524F522121006E6869657420646F85
:10089C003A20002564DF4300646F20616D3A20002C
:0608AC0025642000250078
:00000001FF
